{
  "abi": [
    {
      "inputs": [
        {
          "internalType": "address",
          "name": "_owner",
          "type": "address"
        }
      ],
      "stateMutability": "nonpayable",
      "type": "constructor"
    },
    {
      "anonymous": false,
      "inputs": [
        {
          "indexed": true,
          "internalType": "address",
          "name": "owner",
          "type": "address"
        },
        {
          "indexed": false,
          "internalType": "uint256",
          "name": "cardNumber",
          "type": "uint256"
        }
      ],
      "name": "CardIssued",
      "type": "event"
    },
    {
      "anonymous": false,
      "inputs": [
        {
          "indexed": true,
          "internalType": "address",
          "name": "owner",
          "type": "address"
        },
        {
          "indexed": false,
          "internalType": "uint256",
          "name": "amount",
          "type": "uint256"
        },
        {
          "indexed": false,
          "internalType": "string",
          "name": "currency",
          "type": "string"
        }
      ],
      "name": "PaymentProcessed",
      "type": "event"
    },
    {
      "inputs": [
        {
          "internalType": "address",
          "name": "",
          "type": "address"
        }
      ],
      "name": "balances",
      "outputs": [
        {
          "internalType": "uint256",
          "name": "",
          "type": "uint256"
        }
      ],
      "stateMutability": "view",
      "type": "function"
    },
    {
      "inputs": [
        {
          "internalType": "address",
          "name": "",
          "type": "address"
        }
      ],
      "name": "cardOwners",
      "outputs": [
        {
          "internalType": "uint256",
          "name": "cardNumber",
          "type": "uint256"
        },
        {
          "internalType": "uint256",
          "name": "expiryTimestamp",
          "type": "uint256"
        },
        {
          "internalType": "bool",
          "name": "active",
          "type": "bool"
        }
      ],
      "stateMutability": "view",
      "type": "function"
    },
    {
      "inputs": [
        {
          "internalType": "string",
          "name": "",
          "type": "string"
        }
      ],
      "name": "conversionRates",
      "outputs": [
        {
          "internalType": "uint256",
          "name": "",
          "type": "uint256"
        }
      ],
      "stateMutability": "view",
      "type": "function"
    },
    {
      "inputs": [],
      "name": "getOwner",
      "outputs": [
        {
          "internalType": "address",
          "name": "",
          "type": "address"
        }
      ],
      "stateMutability": "view",
      "type": "function"
    },
    {
      "inputs": [
        {
          "internalType": "address",
          "name": "_address",
          "type": "address"
        }
      ],
      "name": "isCardActive",
      "outputs": [
        {
          "internalType": "bool",
          "name": "",
          "type": "bool"
        }
      ],
      "stateMutability": "view",
      "type": "function"
    },
    {
      "inputs": [
        {
          "internalType": "uint256",
          "name": "cardNumber",
          "type": "uint256"
        },
        {
          "internalType": "uint256",
          "name": "durationInDays",
          "type": "uint256"
        }
      ],
      "name": "issueCard",
      "outputs": [],
      "stateMutability": "nonpayable",
      "type": "function"
    },
    {
      "inputs": [],
      "name": "owner",
      "outputs": [
        {
          "internalType": "address",
          "name": "",
          "type": "address"
        }
      ],
      "stateMutability": "view",
      "type": "function"
    },
    {
      "inputs": [
        {
          "internalType": "string",
          "name": "currency",
          "type": "string"
        },
        {
          "internalType": "uint256",
          "name": "amount",
          "type": "uint256"
        }
      ],
      "name": "processPayment",
      "outputs": [],
      "stateMutability": "nonpayable",
      "type": "function"
    },
    {
      "inputs": [
        {
          "internalType": "string",
          "name": "currency",
          "type": "string"
        },
        {
          "internalType": "uint256",
          "name": "rate",
          "type": "uint256"
        }
      ],
      "name": "setConversionRate",
      "outputs": [],
      "stateMutability": "nonpayable",
      "type": "function"
    },
    {
      "inputs": [],
      "name": "totalCards",
      "outputs": [
        {
          "internalType": "uint256",
          "name": "",
          "type": "uint256"
        }
      ],
      "stateMutability": "view",
      "type": "function"
    }
  ],
  "devdoc": {
    "kind": "dev",
    "methods": {},
    "version": 1
  },
  "evm": {
    "assembly": "    /* \"Contract.sol\":57:2351  contract Web3CreditCard {... */\n  mstore(0x40, 0x80)\n    /* \"Contract.sol\":672:755  constructor(address _owner) {... */\n  callvalue\n  dup1\n  iszero\n  tag_1\n  jumpi\n  0x00\n  dup1\n  revert\ntag_1:\n  pop\n  mload(0x40)\n  sub(codesize, bytecodeSize)\n  dup1\n  bytecodeSize\n  dup4\n  codecopy\n  dup2\n  add\n  0x40\n  dup2\n  swap1\n  mstore\n  tag_2\n  swap2\n  tag_3\n  jump\t// in\ntag_2:\n    /* \"Contract.sol\":710:715  owner */\n  0x04\n    /* \"Contract.sol\":710:724  owner = _owner */\n  dup1\n  sload\n  not(sub(shl(0xa0, 0x01), 0x01))\n  and\n  sub(shl(0xa0, 0x01), 0x01)\n  swap3\n  swap1\n  swap3\n  and\n  swap2\n  swap1\n  swap2\n  or\n  swap1\n  sstore\n  0x00\n    /* \"Contract.sol\":734:744  totalCards */\n  0x03\n    /* \"Contract.sol\":734:748  totalCards = 0 */\n  sstore\n    /* \"Contract.sol\":57:2351  contract Web3CreditCard {... */\n  jump(tag_7)\n    /* \"#utility.yul\":14:304   */\ntag_3:\n    /* \"#utility.yul\":84:90   */\n  0x00\n    /* \"#utility.yul\":137:139   */\n  0x20\n    /* \"#utility.yul\":125:134   */\n  dup3\n    /* \"#utility.yul\":116:123   */\n  dup5\n    /* \"#utility.yul\":112:135   */\n  sub\n    /* \"#utility.yul\":108:140   */\n  slt\n    /* \"#utility.yul\":105:157   */\n  iszero\n  tag_9\n  jumpi\n    /* \"#utility.yul\":153:154   */\n  0x00\n    /* \"#utility.yul\":150:151   */\n  dup1\n    /* \"#utility.yul\":143:155   */\n  revert\n    /* \"#utility.yul\":105:157   */\ntag_9:\n    /* \"#utility.yul\":179:195   */\n  dup2\n  mload\n  sub(shl(0xa0, 0x01), 0x01)\n    /* \"#utility.yul\":224:255   */\n  dup2\n  and\n    /* \"#utility.yul\":214:256   */\n  dup2\n  eq\n    /* \"#utility.yul\":204:274   */\n  tag_10\n  jumpi\n    /* \"#utility.yul\":270:271   */\n  0x00\n    /* \"#utility.yul\":267:268   */\n  dup1\n    /* \"#utility.yul\":260:272   */\n  revert\n    /* \"#utility.yul\":204:274   */\ntag_10:\n    /* \"#utility.yul\":293:298   */\n  swap4\n    /* \"#utility.yul\":14:304   */\n  swap3\n  pop\n  pop\n  pop\n  jump\t// out\ntag_7:\n    /* \"Contract.sol\":57:2351  contract Web3CreditCard {... */\n  dataSize(sub_0)\n  dup1\n  dataOffset(sub_0)\n  0x00\n  codecopy\n  0x00\n  return\nstop\n\nsub_0: assembly {\n        /* \"Contract.sol\":57:2351  contract Web3CreditCard {... */\n      mstore(0x40, 0x80)\n      callvalue\n      dup1\n      iszero\n      tag_1\n      jumpi\n      0x00\n      dup1\n      revert\n    tag_1:\n      pop\n      jumpi(tag_2, lt(calldatasize, 0x04))\n      shr(0xe0, calldataload(0x00))\n      dup1\n      0x893d20e8\n      gt\n      tag_13\n      jumpi\n      dup1\n      0xa28e21b5\n      gt\n      tag_14\n      jumpi\n      dup1\n      0xa28e21b5\n      eq\n      tag_10\n      jumpi\n      dup1\n      0xa2ce6964\n      eq\n      tag_11\n      jumpi\n      dup1\n      0xe994c15d\n      eq\n      tag_12\n      jumpi\n      0x00\n      dup1\n      revert\n    tag_14:\n      dup1\n      0x893d20e8\n      eq\n      tag_8\n      jumpi\n      dup1\n      0x8da5cb5b\n      eq\n      tag_9\n      jumpi\n      0x00\n      dup1\n      revert\n    tag_13:\n      dup1\n      0x5c41fece\n      gt\n      tag_15\n      jumpi\n      dup1\n      0x5c41fece\n      eq\n      tag_5\n      jumpi\n      dup1\n      0x86b35583\n      eq\n      tag_6\n      jumpi\n      dup1\n      0x86f56750\n      eq\n      tag_7\n      jumpi\n      0x00\n      dup1\n      revert\n    tag_15:\n      dup1\n      0x27e235e3\n      eq\n      tag_3\n      jumpi\n      dup1\n      0x3b0042c4\n      eq\n      tag_4\n      jumpi\n    tag_2:\n      0x00\n      dup1\n      revert\n        /* \"Contract.sol\":288:331  mapping(address => uint256) public balances */\n    tag_3:\n      tag_16\n      tag_17\n      calldatasize\n      0x04\n      tag_18\n      jump\t// in\n    tag_17:\n      mstore(0x20, 0x01)\n      0x00\n      swap1\n      dup2\n      mstore\n      0x40\n      swap1\n      keccak256\n      sload\n      dup2\n      jump\n    tag_16:\n      mload(0x40)\n        /* \"#utility.yul\":474:499   */\n      swap1\n      dup2\n      mstore\n        /* \"#utility.yul\":462:464   */\n      0x20\n        /* \"#utility.yul\":447:465   */\n      add\n        /* \"Contract.sol\":288:331  mapping(address => uint256) public balances */\n    tag_20:\n      mload(0x40)\n      dup1\n      swap2\n      sub\n      swap1\n      return\n        /* \"Contract.sol\":792:1241  function issueCard(uint256 cardNumber, uint256 durationInDays) external {... */\n    tag_4:\n      tag_22\n      tag_23\n      calldatasize\n      0x04\n      tag_24\n      jump\t// in\n    tag_23:\n      tag_25\n      jump\t// in\n    tag_22:\n      stop\n        /* \"Contract.sol\":337:386  mapping(string => uint256) public conversionRates */\n    tag_5:\n      tag_16\n      tag_27\n      calldatasize\n      0x04\n      tag_28\n      jump\t// in\n    tag_27:\n      dup1\n      mload\n      0x20\n      dup2\n      dup4\n      add\n      dup2\n      add\n      dup1\n      mload\n      0x02\n      dup3\n      mstore\n      swap3\n      dup3\n      add\n      swap2\n      swap1\n      swap4\n      add\n      keccak256\n      swap2\n      mstore\n      sload\n      dup2\n      jump\n        /* \"Contract.sol\":1530:1975  function processPayment(string memory currency, uint256 amount) external {... */\n    tag_6:\n      tag_22\n      tag_32\n      calldatasize\n      0x04\n      tag_33\n      jump\t// in\n    tag_32:\n      tag_34\n      jump\t// in\n        /* \"Contract.sol\":2014:2225  function isCardActive(address _address) external view returns (bool) {... */\n    tag_7:\n      tag_35\n      tag_36\n      calldatasize\n      0x04\n      tag_18\n      jump\t// in\n    tag_36:\n      tag_37\n      jump\t// in\n    tag_35:\n      mload(0x40)\n        /* \"#utility.yul\":2506:2520   */\n      swap1\n      iszero\n        /* \"#utility.yul\":2499:2521   */\n      iszero\n        /* \"#utility.yul\":2481:2522   */\n      dup2\n      mstore\n        /* \"#utility.yul\":2469:2471   */\n      0x20\n        /* \"#utility.yul\":2454:2472   */\n      add\n        /* \"Contract.sol\":2014:2225  function isCardActive(address _address) external view returns (bool) {... */\n      tag_20\n        /* \"#utility.yul\":2341:2528   */\n      jump\n        /* \"Contract.sol\":2268:2349  function getOwner() external view returns (address) {... */\n    tag_8:\n        /* \"Contract.sol\":2337:2342  owner */\n      and(sub(shl(0xa0, 0x01), 0x01), sload(0x04))\n        /* \"Contract.sol\":2268:2349  function getOwner() external view returns (address) {... */\n    tag_40:\n      mload(0x40)\n      sub(shl(0xa0, 0x01), 0x01)\n        /* \"#utility.yul\":2697:2752   */\n      swap1\n      swap2\n      and\n        /* \"#utility.yul\":2679:2753   */\n      dup2\n      mstore\n        /* \"#utility.yul\":2667:2669   */\n      0x20\n        /* \"#utility.yul\":2652:2670   */\n      add\n        /* \"Contract.sol\":2268:2349  function getOwner() external view returns (address) {... */\n      tag_20\n        /* \"#utility.yul\":2533:2759   */\n      jump\n        /* \"Contract.sol\":462:482  address public owner */\n    tag_9:\n      sload(0x04)\n      tag_40\n      swap1\n      sub(shl(0xa0, 0x01), 0x01)\n      and\n      dup2\n      jump\n        /* \"Contract.sol\":236:282  mapping(address => CardInfo) public cardOwners */\n    tag_10:\n      tag_47\n      tag_48\n      calldatasize\n      0x04\n      tag_18\n      jump\t// in\n    tag_48:\n      0x00\n      0x20\n      dup2\n      swap1\n      mstore\n      swap1\n      dup2\n      mstore\n      0x40\n      swap1\n      keccak256\n      dup1\n      sload\n      0x01\n      dup3\n      add\n      sload\n      0x02\n      swap1\n      swap3\n      add\n      sload\n      swap1\n      swap2\n      swap1\n      0xff\n      and\n      dup4\n      jump\n    tag_47:\n      0x40\n      dup1\n      mload\n        /* \"#utility.yul\":2960:2985   */\n      swap4\n      dup5\n      mstore\n        /* \"#utility.yul\":3016:3018   */\n      0x20\n        /* \"#utility.yul\":3001:3019   */\n      dup5\n      add\n        /* \"#utility.yul\":2994:3028   */\n      swap3\n      swap1\n      swap3\n      mstore\n        /* \"#utility.yul\":3071:3085   */\n      iszero\n        /* \"#utility.yul\":3064:3086   */\n      iszero\n        /* \"#utility.yul\":3044:3062   */\n      swap1\n      dup3\n      add\n        /* \"#utility.yul\":3037:3087   */\n      mstore\n        /* \"#utility.yul\":2948:2950   */\n      0x60\n        /* \"#utility.yul\":2933:2951   */\n      add\n        /* \"Contract.sol\":236:282  mapping(address => CardInfo) public cardOwners */\n      tag_20\n        /* \"#utility.yul\":2764:3093   */\n      jump\n        /* \"Contract.sol\":1298:1475  function setConversionRate(string memory currency, uint256 rate) external {... */\n    tag_11:\n      tag_22\n      tag_53\n      calldatasize\n      0x04\n      tag_33\n      jump\t// in\n    tag_53:\n      tag_54\n      jump\t// in\n        /* \"Contract.sol\":431:456  uint256 public totalCards */\n    tag_12:\n      tag_16\n      sload(0x03)\n      dup2\n      jump\n        /* \"Contract.sol\":792:1241  function issueCard(uint256 cardNumber, uint256 durationInDays) external {... */\n    tag_25:\n        /* \"Contract.sol\":874:897  uint256 expiryTimestamp */\n      0x00\n        /* \"Contract.sol\":919:942  durationInDays * 1 days */\n      tag_59\n        /* \"Contract.sol\":919:933  durationInDays */\n      dup3\n        /* \"Contract.sol\":936:942  1 days */\n      0x015180\n        /* \"Contract.sol\":919:942  durationInDays * 1 days */\n      tag_60\n      jump\t// in\n    tag_59:\n        /* \"Contract.sol\":900:943  block.timestamp + (durationInDays * 1 days) */\n      tag_61\n      swap1\n        /* \"Contract.sol\":900:915  block.timestamp */\n      timestamp\n        /* \"Contract.sol\":900:943  block.timestamp + (durationInDays * 1 days) */\n      tag_62\n      jump\t// in\n    tag_61:\n        /* \"Contract.sol\":984:1112  CardInfo({... */\n      0x40\n      dup1\n      mload\n      0x60\n      dup2\n      add\n      dup3\n      mstore\n      dup6\n      dup2\n      mstore\n      0x20\n      dup1\n      dup3\n      add\n      dup5\n      dup2\n      mstore\n        /* \"Contract.sol\":1097:1101  true */\n      0x01\n        /* \"Contract.sol\":984:1112  CardInfo({... */\n      dup4\n      dup6\n      add\n      dup2\n      dup2\n      mstore\n        /* \"Contract.sol\":1134:1144  msg.sender */\n      caller\n      0x00\n        /* \"Contract.sol\":1123:1145  cardOwners[msg.sender] */\n      swap1\n      dup2\n      mstore\n      swap4\n      dup5\n      swap1\n      mstore\n      swap5\n      dup4\n      keccak256\n        /* \"Contract.sol\":1123:1159  cardOwners[msg.sender] = newCardInfo */\n      dup5\n      mload\n      dup2\n      sstore\n      swap2\n      mload\n      dup3\n      dup3\n      add\n      sstore\n      swap4\n      mload\n      0x02\n      swap1\n      swap2\n      add\n      dup1\n      sload\n      not(0xff)\n      and\n      swap2\n      iszero\n      iszero\n      swap2\n      swap1\n      swap2\n      or\n      swap1\n      sstore\n        /* \"Contract.sol\":1169:1179  totalCards */\n      0x03\n        /* \"Contract.sol\":1169:1184  totalCards += 1 */\n      dup1\n      sload\n        /* \"Contract.sol\":984:1112  CardInfo({... */\n      swap5\n      swap6\n      pop\n      swap2\n      swap4\n        /* \"Contract.sol\":1169:1184  totalCards += 1 */\n      tag_63\n      swap1\n        /* \"Contract.sol\":1097:1101  true */\n      dup5\n      swap1\n        /* \"Contract.sol\":1169:1184  totalCards += 1 */\n      tag_62\n      jump\t// in\n    tag_63:\n      swap1\n      swap2\n      sstore\n      pop\n      pop\n        /* \"Contract.sol\":1200:1234  CardIssued(msg.sender, cardNumber) */\n      mload(0x40)\n        /* \"#utility.yul\":474:499   */\n      dup5\n      dup2\n      mstore\n        /* \"Contract.sol\":1211:1221  msg.sender */\n      caller\n      swap1\n        /* \"Contract.sol\":1200:1234  CardIssued(msg.sender, cardNumber) */\n      0x7e52caab8183f95bc6e16eabb68255bfc123ddd84684d064028d794966712f51\n      swap1\n        /* \"#utility.yul\":462:464   */\n      0x20\n        /* \"#utility.yul\":447:465   */\n      add\n        /* \"Contract.sol\":1200:1234  CardIssued(msg.sender, cardNumber) */\n      mload(0x40)\n      dup1\n      swap2\n      sub\n      swap1\n      log2\n        /* \"Contract.sol\":864:1241  {... */\n      pop\n      pop\n        /* \"Contract.sol\":792:1241  function issueCard(uint256 cardNumber, uint256 durationInDays) external {... */\n      pop\n      pop\n      jump\t// out\n        /* \"Contract.sol\":1530:1975  function processPayment(string memory currency, uint256 amount) external {... */\n    tag_34:\n        /* \"Contract.sol\":1613:1625  uint256 rate */\n      0x00\n        /* \"Contract.sol\":1628:1643  conversionRates */\n      0x02\n        /* \"Contract.sol\":1644:1652  currency */\n      dup4\n        /* \"Contract.sol\":1628:1653  conversionRates[currency] */\n      mload(0x40)\n      tag_66\n      swap2\n      swap1\n      tag_67\n      jump\t// in\n    tag_66:\n      swap1\n      dup2\n      mstore\n      0x20\n      add\n      mload(0x40)\n      dup1\n      swap2\n      sub\n      swap1\n      keccak256\n      sload\n        /* \"Contract.sol\":1613:1653  uint256 rate = conversionRates[currency] */\n      swap1\n      pop\n        /* \"Contract.sol\":1678:1679  0 */\n      0x00\n        /* \"Contract.sol\":1671:1675  rate */\n      dup2\n        /* \"Contract.sol\":1671:1679  rate > 0 */\n      gt\n        /* \"Contract.sol\":1663:1700  require(rate > 0, \"Invalid currency\") */\n      tag_68\n      jumpi\n      mload(0x40)\n      shl(0xe5, 0x461bcd)\n      dup2\n      mstore\n        /* \"#utility.yul\":4043:4045   */\n      0x20\n        /* \"Contract.sol\":1663:1700  require(rate > 0, \"Invalid currency\") */\n      0x04\n      dup3\n      add\n        /* \"#utility.yul\":4025:4046   */\n      mstore\n        /* \"#utility.yul\":4082:4084   */\n      0x10\n        /* \"#utility.yul\":4062:4080   */\n      0x24\n      dup3\n      add\n        /* \"#utility.yul\":4055:4085   */\n      mstore\n        /* \"#utility.yul\":4121:4139   */\n      0x496e76616c69642063757272656e637900000000000000000000000000000000\n        /* \"#utility.yul\":4101:4119   */\n      0x44\n      dup3\n      add\n        /* \"#utility.yul\":4094:4140   */\n      mstore\n        /* \"#utility.yul\":4157:4175   */\n      0x64\n      add\n        /* \"Contract.sol\":1663:1700  require(rate > 0, \"Invalid currency\") */\n    tag_69:\n      mload(0x40)\n      dup1\n      swap2\n      sub\n      swap1\n      revert\n    tag_68:\n        /* \"Contract.sol\":1711:1729  uint256 fiatAmount */\n      0x00\n        /* \"Contract.sol\":1732:1745  amount * rate */\n      tag_71\n        /* \"Contract.sol\":1741:1745  rate */\n      dup3\n        /* \"Contract.sol\":1732:1738  amount */\n      dup5\n        /* \"Contract.sol\":1732:1745  amount * rate */\n      tag_60\n      jump\t// in\n    tag_71:\n        /* \"Contract.sol\":1782:1792  msg.sender */\n      caller\n        /* \"Contract.sol\":1755:1770  uint256 balance */\n      0x00\n        /* \"Contract.sol\":1773:1793  balances[msg.sender] */\n      swap1\n      dup2\n      mstore\n        /* \"Contract.sol\":1773:1781  balances */\n      0x01\n        /* \"Contract.sol\":1773:1793  balances[msg.sender] */\n      0x20\n      mstore\n      0x40\n      swap1\n      keccak256\n      sload\n        /* \"Contract.sol\":1711:1745  uint256 fiatAmount = amount * rate */\n      swap1\n      swap2\n      pop\n        /* \"Contract.sol\":1811:1832  balance >= fiatAmount */\n      dup2\n      dup2\n      lt\n      iszero\n        /* \"Contract.sol\":1803:1857  require(balance >= fiatAmount, \"Insufficient balance\") */\n      tag_72\n      jumpi\n      mload(0x40)\n      shl(0xe5, 0x461bcd)\n      dup2\n      mstore\n        /* \"#utility.yul\":4388:4390   */\n      0x20\n        /* \"Contract.sol\":1803:1857  require(balance >= fiatAmount, \"Insufficient balance\") */\n      0x04\n      dup3\n      add\n        /* \"#utility.yul\":4370:4391   */\n      mstore\n        /* \"#utility.yul\":4427:4429   */\n      0x14\n        /* \"#utility.yul\":4407:4425   */\n      0x24\n      dup3\n      add\n        /* \"#utility.yul\":4400:4430   */\n      mstore\n        /* \"#utility.yul\":4466:4488   */\n      0x496e73756666696369656e742062616c616e6365000000000000000000000000\n        /* \"#utility.yul\":4446:4464   */\n      0x44\n      dup3\n      add\n        /* \"#utility.yul\":4439:4489   */\n      mstore\n        /* \"#utility.yul\":4506:4524   */\n      0x64\n      add\n        /* \"Contract.sol\":1803:1857  require(balance >= fiatAmount, \"Insufficient balance\") */\n      tag_69\n        /* \"#utility.yul\":4186:4530   */\n      jump\n        /* \"Contract.sol\":1803:1857  require(balance >= fiatAmount, \"Insufficient balance\") */\n    tag_72:\n        /* \"Contract.sol\":1877:1887  msg.sender */\n      caller\n        /* \"Contract.sol\":1868:1888  balances[msg.sender] */\n      0x00\n      swap1\n      dup2\n      mstore\n        /* \"Contract.sol\":1868:1876  balances */\n      0x01\n        /* \"Contract.sol\":1868:1888  balances[msg.sender] */\n      0x20\n      mstore\n      0x40\n      dup2\n      keccak256\n        /* \"Contract.sol\":1868:1902  balances[msg.sender] -= fiatAmount */\n      dup1\n      sload\n        /* \"Contract.sol\":1892:1902  fiatAmount */\n      dup5\n      swap3\n        /* \"Contract.sol\":1868:1888  balances[msg.sender] */\n      swap1\n        /* \"Contract.sol\":1868:1902  balances[msg.sender] -= fiatAmount */\n      tag_75\n      swap1\n        /* \"Contract.sol\":1892:1902  fiatAmount */\n      dup5\n      swap1\n        /* \"Contract.sol\":1868:1902  balances[msg.sender] -= fiatAmount */\n      tag_76\n      jump\t// in\n    tag_75:\n      swap1\n      swap2\n      sstore\n      pop\n      pop\n        /* \"Contract.sol\":1918:1968  PaymentProcessed(msg.sender, fiatAmount, currency) */\n      mload(0x40)\n        /* \"Contract.sol\":1935:1945  msg.sender */\n      caller\n      swap1\n        /* \"Contract.sol\":1918:1968  PaymentProcessed(msg.sender, fiatAmount, currency) */\n      0x606ff1e9632beb4e08a56115fa1b41c0f8bd35344e8527ddd9967c1260b60194\n      swap1\n      tag_77\n      swap1\n        /* \"Contract.sol\":1947:1957  fiatAmount */\n      dup6\n      swap1\n        /* \"Contract.sol\":1959:1967  currency */\n      dup10\n      swap1\n        /* \"Contract.sol\":1918:1968  PaymentProcessed(msg.sender, fiatAmount, currency) */\n      tag_78\n      jump\t// in\n    tag_77:\n      mload(0x40)\n      dup1\n      swap2\n      sub\n      swap1\n      log2\n        /* \"Contract.sol\":1603:1975  {... */\n      pop\n      pop\n      pop\n        /* \"Contract.sol\":1530:1975  function processPayment(string memory currency, uint256 amount) external {... */\n      pop\n      pop\n      jump\t// out\n        /* \"Contract.sol\":2014:2225  function isCardActive(address _address) external view returns (bool) {... */\n    tag_37:\n      sub(shl(0xa0, 0x01), 0x01)\n        /* \"Contract.sol\":2120:2140  cardOwners[_address] */\n      dup2\n      and\n        /* \"Contract.sol\":2077:2081  bool */\n      0x00\n        /* \"Contract.sol\":2120:2140  cardOwners[_address] */\n      swap1\n      dup2\n      mstore\n      0x20\n      dup2\n      dup2\n      mstore\n      0x40\n      dup1\n      dup4\n      keccak256\n        /* \"Contract.sol\":2093:2140  CardInfo memory cardInfo = cardOwners[_address] */\n      dup2\n      mload\n      0x60\n      dup2\n      add\n      dup4\n      mstore\n      dup2\n      sload\n      dup2\n      mstore\n      0x01\n      dup3\n      add\n      sload\n      swap4\n      dup2\n      add\n      swap4\n      swap1\n      swap4\n      mstore\n      0x02\n      add\n      sload\n      0xff\n      and\n      iszero\n      dup1\n      iszero\n      swap2\n      dup4\n      add\n      dup3\n      swap1\n      mstore\n        /* \"Contract.sol\":2157:2218  cardInfo.active && block.timestamp < cardInfo.expiryTimestamp */\n      tag_80\n      jumpi\n      pop\n        /* \"Contract.sol\":2194:2202  cardInfo */\n      dup1\n        /* \"Contract.sol\":2194:2218  cardInfo.expiryTimestamp */\n      0x20\n      add\n      mload\n        /* \"Contract.sol\":2176:2191  block.timestamp */\n      timestamp\n        /* \"Contract.sol\":2176:2218  block.timestamp < cardInfo.expiryTimestamp */\n      lt\n        /* \"Contract.sol\":2157:2218  cardInfo.active && block.timestamp < cardInfo.expiryTimestamp */\n    tag_80:\n        /* \"Contract.sol\":2150:2218  return cardInfo.active && block.timestamp < cardInfo.expiryTimestamp */\n      swap4\n        /* \"Contract.sol\":2014:2225  function isCardActive(address _address) external view returns (bool) {... */\n      swap3\n      pop\n      pop\n      pop\n      jump\t// out\n        /* \"Contract.sol\":1298:1475  function setConversionRate(string memory currency, uint256 rate) external {... */\n    tag_54:\n        /* \"Contract.sol\":1404:1409  owner */\n      and(sub(shl(0xa0, 0x01), 0x01), sload(0x04))\n        /* \"Contract.sol\":1390:1400  msg.sender */\n      caller\n        /* \"Contract.sol\":1390:1409  msg.sender == owner */\n      eq\n        /* \"Contract.sol\":1382:1426  require(msg.sender == owner, \"Unauthorized\") */\n      tag_83\n      jumpi\n      mload(0x40)\n      shl(0xe5, 0x461bcd)\n      dup2\n      mstore\n        /* \"#utility.yul\":5364:5366   */\n      0x20\n        /* \"Contract.sol\":1382:1426  require(msg.sender == owner, \"Unauthorized\") */\n      0x04\n      dup3\n      add\n        /* \"#utility.yul\":5346:5367   */\n      mstore\n        /* \"#utility.yul\":5403:5405   */\n      0x0c\n        /* \"#utility.yul\":5383:5401   */\n      0x24\n      dup3\n      add\n        /* \"#utility.yul\":5376:5406   */\n      mstore\n        /* \"#utility.yul\":5442:5456   */\n      0x556e617574686f72697a65640000000000000000000000000000000000000000\n        /* \"#utility.yul\":5422:5440   */\n      0x44\n      dup3\n      add\n        /* \"#utility.yul\":5415:5457   */\n      mstore\n        /* \"#utility.yul\":5474:5492   */\n      0x64\n      add\n        /* \"Contract.sol\":1382:1426  require(msg.sender == owner, \"Unauthorized\") */\n      tag_69\n        /* \"#utility.yul\":5162:5498   */\n      jump\n        /* \"Contract.sol\":1382:1426  require(msg.sender == owner, \"Unauthorized\") */\n    tag_83:\n        /* \"Contract.sol\":1464:1468  rate */\n      dup1\n        /* \"Contract.sol\":1436:1451  conversionRates */\n      0x02\n        /* \"Contract.sol\":1452:1460  currency */\n      dup4\n        /* \"Contract.sol\":1436:1461  conversionRates[currency] */\n      mload(0x40)\n      tag_86\n      swap2\n      swap1\n      tag_67\n      jump\t// in\n    tag_86:\n      swap1\n      dup2\n      mstore\n      mload(0x40)\n      swap1\n      dup2\n      swap1\n      sub\n      0x20\n      add\n      swap1\n      keccak256\n        /* \"Contract.sol\":1436:1468  conversionRates[currency] = rate */\n      sstore\n      pop\n      pop\n        /* \"Contract.sol\":1298:1475  function setConversionRate(string memory currency, uint256 rate) external {... */\n      jump\t// out\n        /* \"#utility.yul\":14:323   */\n    tag_18:\n        /* \"#utility.yul\":73:79   */\n      0x00\n        /* \"#utility.yul\":126:128   */\n      0x20\n        /* \"#utility.yul\":114:123   */\n      dup3\n        /* \"#utility.yul\":105:112   */\n      dup5\n        /* \"#utility.yul\":101:124   */\n      sub\n        /* \"#utility.yul\":97:129   */\n      slt\n        /* \"#utility.yul\":94:146   */\n      iszero\n      tag_92\n      jumpi\n        /* \"#utility.yul\":142:143   */\n      0x00\n        /* \"#utility.yul\":139:140   */\n      dup1\n        /* \"#utility.yul\":132:144   */\n      revert\n        /* \"#utility.yul\":94:146   */\n    tag_92:\n        /* \"#utility.yul\":181:190   */\n      dup2\n        /* \"#utility.yul\":168:191   */\n      calldataload\n      sub(shl(0xa0, 0x01), 0x01)\n        /* \"#utility.yul\":224:229   */\n      dup2\n        /* \"#utility.yul\":220:274   */\n      and\n        /* \"#utility.yul\":213:218   */\n      dup2\n        /* \"#utility.yul\":210:275   */\n      eq\n        /* \"#utility.yul\":200:293   */\n      tag_80\n      jumpi\n        /* \"#utility.yul\":289:290   */\n      0x00\n        /* \"#utility.yul\":286:287   */\n      dup1\n        /* \"#utility.yul\":279:291   */\n      revert\n        /* \"#utility.yul\":510:758   */\n    tag_24:\n        /* \"#utility.yul\":578:584   */\n      0x00\n        /* \"#utility.yul\":586:592   */\n      dup1\n        /* \"#utility.yul\":639:641   */\n      0x40\n        /* \"#utility.yul\":627:636   */\n      dup4\n        /* \"#utility.yul\":618:625   */\n      dup6\n        /* \"#utility.yul\":614:637   */\n      sub\n        /* \"#utility.yul\":610:642   */\n      slt\n        /* \"#utility.yul\":607:659   */\n      iszero\n      tag_96\n      jumpi\n        /* \"#utility.yul\":655:656   */\n      0x00\n        /* \"#utility.yul\":652:653   */\n      dup1\n        /* \"#utility.yul\":645:657   */\n      revert\n        /* \"#utility.yul\":607:659   */\n    tag_96:\n      pop\n      pop\n        /* \"#utility.yul\":678:701   */\n      dup1\n      calldataload\n      swap3\n        /* \"#utility.yul\":748:750   */\n      0x20\n        /* \"#utility.yul\":733:751   */\n      swap1\n      swap2\n      add\n        /* \"#utility.yul\":720:752   */\n      calldataload\n      swap2\n      pop\n        /* \"#utility.yul\":510:758   */\n      jump\t// out\n        /* \"#utility.yul\":763:890   */\n    tag_87:\n        /* \"#utility.yul\":824:834   */\n      0x4e487b71\n        /* \"#utility.yul\":819:822   */\n      0xe0\n        /* \"#utility.yul\":815:835   */\n      shl\n        /* \"#utility.yul\":812:813   */\n      0x00\n        /* \"#utility.yul\":805:836   */\n      mstore\n        /* \"#utility.yul\":855:859   */\n      0x41\n        /* \"#utility.yul\":852:853   */\n      0x04\n        /* \"#utility.yul\":845:860   */\n      mstore\n        /* \"#utility.yul\":879:883   */\n      0x24\n        /* \"#utility.yul\":876:877   */\n      0x00\n        /* \"#utility.yul\":869:884   */\n      revert\n        /* \"#utility.yul\":895:1614   */\n    tag_88:\n        /* \"#utility.yul\":938:943   */\n      0x00\n        /* \"#utility.yul\":991:994   */\n      dup3\n        /* \"#utility.yul\":984:988   */\n      0x1f\n        /* \"#utility.yul\":976:982   */\n      dup4\n        /* \"#utility.yul\":972:989   */\n      add\n        /* \"#utility.yul\":968:995   */\n      slt\n        /* \"#utility.yul\":958:1013   */\n      tag_99\n      jumpi\n        /* \"#utility.yul\":1009:1010   */\n      0x00\n        /* \"#utility.yul\":1006:1007   */\n      dup1\n        /* \"#utility.yul\":999:1011   */\n      revert\n        /* \"#utility.yul\":958:1013   */\n    tag_99:\n        /* \"#utility.yul\":1045:1051   */\n      dup2\n        /* \"#utility.yul\":1032:1052   */\n      calldataload\n        /* \"#utility.yul\":1071:1089   */\n      0xffffffffffffffff\n        /* \"#utility.yul\":1108:1110   */\n      dup1\n        /* \"#utility.yul\":1104:1106   */\n      dup3\n        /* \"#utility.yul\":1101:1111   */\n      gt\n        /* \"#utility.yul\":1098:1134   */\n      iszero\n      tag_101\n      jumpi\n        /* \"#utility.yul\":1114:1132   */\n      tag_101\n      tag_87\n      jump\t// in\n    tag_101:\n        /* \"#utility.yul\":1189:1191   */\n      0x40\n        /* \"#utility.yul\":1183:1192   */\n      mload\n        /* \"#utility.yul\":1157:1159   */\n      0x1f\n        /* \"#utility.yul\":1243:1256   */\n      dup4\n      add\n      not(0x1f)\n        /* \"#utility.yul\":1239:1261   */\n      swap1\n      dup2\n      and\n        /* \"#utility.yul\":1263:1265   */\n      0x3f\n        /* \"#utility.yul\":1235:1266   */\n      add\n        /* \"#utility.yul\":1231:1271   */\n      and\n        /* \"#utility.yul\":1219:1272   */\n      dup2\n      add\n      swap1\n        /* \"#utility.yul\":1287:1305   */\n      dup3\n      dup3\n      gt\n        /* \"#utility.yul\":1307:1329   */\n      dup2\n      dup4\n      lt\n        /* \"#utility.yul\":1284:1330   */\n      or\n        /* \"#utility.yul\":1281:1353   */\n      iszero\n      tag_103\n      jumpi\n        /* \"#utility.yul\":1333:1351   */\n      tag_103\n      tag_87\n      jump\t// in\n    tag_103:\n        /* \"#utility.yul\":1373:1383   */\n      dup2\n        /* \"#utility.yul\":1369:1371   */\n      0x40\n        /* \"#utility.yul\":1362:1384   */\n      mstore\n        /* \"#utility.yul\":1408:1410   */\n      dup4\n        /* \"#utility.yul\":1400:1406   */\n      dup2\n        /* \"#utility.yul\":1393:1411   */\n      mstore\n        /* \"#utility.yul\":1454:1457   */\n      dup7\n        /* \"#utility.yul\":1447:1451   */\n      0x20\n        /* \"#utility.yul\":1442:1444   */\n      dup6\n        /* \"#utility.yul\":1434:1440   */\n      dup9\n        /* \"#utility.yul\":1430:1445   */\n      add\n        /* \"#utility.yul\":1426:1452   */\n      add\n        /* \"#utility.yul\":1423:1458   */\n      gt\n        /* \"#utility.yul\":1420:1475   */\n      iszero\n      tag_104\n      jumpi\n        /* \"#utility.yul\":1471:1472   */\n      0x00\n        /* \"#utility.yul\":1468:1469   */\n      dup1\n        /* \"#utility.yul\":1461:1473   */\n      revert\n        /* \"#utility.yul\":1420:1475   */\n    tag_104:\n        /* \"#utility.yul\":1535:1537   */\n      dup4\n        /* \"#utility.yul\":1528:1532   */\n      0x20\n        /* \"#utility.yul\":1520:1526   */\n      dup8\n        /* \"#utility.yul\":1516:1533   */\n      add\n        /* \"#utility.yul\":1509:1513   */\n      0x20\n        /* \"#utility.yul\":1501:1507   */\n      dup4\n        /* \"#utility.yul\":1497:1514   */\n      add\n        /* \"#utility.yul\":1484:1538   */\n      calldatacopy\n        /* \"#utility.yul\":1582:1583   */\n      0x00\n        /* \"#utility.yul\":1575:1579   */\n      0x20\n        /* \"#utility.yul\":1570:1572   */\n      dup6\n        /* \"#utility.yul\":1562:1568   */\n      dup4\n        /* \"#utility.yul\":1558:1573   */\n      add\n        /* \"#utility.yul\":1554:1580   */\n      add\n        /* \"#utility.yul\":1547:1584   */\n      mstore\n        /* \"#utility.yul\":1602:1608   */\n      dup1\n        /* \"#utility.yul\":1593:1608   */\n      swap5\n      pop\n      pop\n      pop\n      pop\n      pop\n        /* \"#utility.yul\":895:1614   */\n      swap3\n      swap2\n      pop\n      pop\n      jump\t// out\n        /* \"#utility.yul\":1619:1941   */\n    tag_28:\n        /* \"#utility.yul\":1688:1694   */\n      0x00\n        /* \"#utility.yul\":1741:1743   */\n      0x20\n        /* \"#utility.yul\":1729:1738   */\n      dup3\n        /* \"#utility.yul\":1720:1727   */\n      dup5\n        /* \"#utility.yul\":1716:1739   */\n      sub\n        /* \"#utility.yul\":1712:1744   */\n      slt\n        /* \"#utility.yul\":1709:1761   */\n      iszero\n      tag_106\n      jumpi\n        /* \"#utility.yul\":1757:1758   */\n      0x00\n        /* \"#utility.yul\":1754:1755   */\n      dup1\n        /* \"#utility.yul\":1747:1759   */\n      revert\n        /* \"#utility.yul\":1709:1761   */\n    tag_106:\n        /* \"#utility.yul\":1797:1806   */\n      dup2\n        /* \"#utility.yul\":1784:1807   */\n      calldataload\n        /* \"#utility.yul\":1830:1848   */\n      0xffffffffffffffff\n        /* \"#utility.yul\":1822:1828   */\n      dup2\n        /* \"#utility.yul\":1819:1849   */\n      gt\n        /* \"#utility.yul\":1816:1866   */\n      iszero\n      tag_107\n      jumpi\n        /* \"#utility.yul\":1862:1863   */\n      0x00\n        /* \"#utility.yul\":1859:1860   */\n      dup1\n        /* \"#utility.yul\":1852:1864   */\n      revert\n        /* \"#utility.yul\":1816:1866   */\n    tag_107:\n        /* \"#utility.yul\":1885:1935   */\n      tag_108\n        /* \"#utility.yul\":1927:1934   */\n      dup5\n        /* \"#utility.yul\":1918:1924   */\n      dup3\n        /* \"#utility.yul\":1907:1916   */\n      dup6\n        /* \"#utility.yul\":1903:1925   */\n      add\n        /* \"#utility.yul\":1885:1935   */\n      tag_88\n      jump\t// in\n    tag_108:\n        /* \"#utility.yul\":1875:1935   */\n      swap5\n        /* \"#utility.yul\":1619:1941   */\n      swap4\n      pop\n      pop\n      pop\n      pop\n      jump\t// out\n        /* \"#utility.yul\":1946:2336   */\n    tag_33:\n        /* \"#utility.yul\":2024:2030   */\n      0x00\n        /* \"#utility.yul\":2032:2038   */\n      dup1\n        /* \"#utility.yul\":2085:2087   */\n      0x40\n        /* \"#utility.yul\":2073:2082   */\n      dup4\n        /* \"#utility.yul\":2064:2071   */\n      dup6\n        /* \"#utility.yul\":2060:2083   */\n      sub\n        /* \"#utility.yul\":2056:2088   */\n      slt\n        /* \"#utility.yul\":2053:2105   */\n      iszero\n      tag_110\n      jumpi\n        /* \"#utility.yul\":2101:2102   */\n      0x00\n        /* \"#utility.yul\":2098:2099   */\n      dup1\n        /* \"#utility.yul\":2091:2103   */\n      revert\n        /* \"#utility.yul\":2053:2105   */\n    tag_110:\n        /* \"#utility.yul\":2141:2150   */\n      dup3\n        /* \"#utility.yul\":2128:2151   */\n      calldataload\n        /* \"#utility.yul\":2174:2192   */\n      0xffffffffffffffff\n        /* \"#utility.yul\":2166:2172   */\n      dup2\n        /* \"#utility.yul\":2163:2193   */\n      gt\n        /* \"#utility.yul\":2160:2210   */\n      iszero\n      tag_111\n      jumpi\n        /* \"#utility.yul\":2206:2207   */\n      0x00\n        /* \"#utility.yul\":2203:2204   */\n      dup1\n        /* \"#utility.yul\":2196:2208   */\n      revert\n        /* \"#utility.yul\":2160:2210   */\n    tag_111:\n        /* \"#utility.yul\":2229:2279   */\n      tag_112\n        /* \"#utility.yul\":2271:2278   */\n      dup6\n        /* \"#utility.yul\":2262:2268   */\n      dup3\n        /* \"#utility.yul\":2251:2260   */\n      dup7\n        /* \"#utility.yul\":2247:2269   */\n      add\n        /* \"#utility.yul\":2229:2279   */\n      tag_88\n      jump\t// in\n    tag_112:\n        /* \"#utility.yul\":2219:2279   */\n      swap6\n        /* \"#utility.yul\":2326:2328   */\n      0x20\n        /* \"#utility.yul\":2311:2329   */\n      swap5\n      swap1\n      swap5\n      add\n        /* \"#utility.yul\":2298:2330   */\n      calldataload\n      swap5\n      pop\n      pop\n      pop\n      pop\n        /* \"#utility.yul\":1946:2336   */\n      jump\t// out\n        /* \"#utility.yul\":3098:3225   */\n    tag_89:\n        /* \"#utility.yul\":3159:3169   */\n      0x4e487b71\n        /* \"#utility.yul\":3154:3157   */\n      0xe0\n        /* \"#utility.yul\":3150:3170   */\n      shl\n        /* \"#utility.yul\":3147:3148   */\n      0x00\n        /* \"#utility.yul\":3140:3171   */\n      mstore\n        /* \"#utility.yul\":3190:3194   */\n      0x11\n        /* \"#utility.yul\":3187:3188   */\n      0x04\n        /* \"#utility.yul\":3180:3195   */\n      mstore\n        /* \"#utility.yul\":3214:3218   */\n      0x24\n        /* \"#utility.yul\":3211:3212   */\n      0x00\n        /* \"#utility.yul\":3204:3219   */\n      revert\n        /* \"#utility.yul\":3230:3398   */\n    tag_60:\n        /* \"#utility.yul\":3303:3312   */\n      dup1\n      dup3\n      mul\n        /* \"#utility.yul\":3334:3343   */\n      dup2\n      iszero\n        /* \"#utility.yul\":3351:3366   */\n      dup3\n      dup3\n      div\n        /* \"#utility.yul\":3345:3367   */\n      dup5\n      eq\n        /* \"#utility.yul\":3331:3368   */\n      or\n        /* \"#utility.yul\":3321:3392   */\n      tag_119\n      jumpi\n        /* \"#utility.yul\":3372:3390   */\n      tag_119\n      tag_89\n      jump\t// in\n    tag_119:\n        /* \"#utility.yul\":3230:3398   */\n      swap3\n      swap2\n      pop\n      pop\n      jump\t// out\n        /* \"#utility.yul\":3403:3528   */\n    tag_62:\n        /* \"#utility.yul\":3468:3477   */\n      dup1\n      dup3\n      add\n        /* \"#utility.yul\":3489:3499   */\n      dup1\n      dup3\n      gt\n        /* \"#utility.yul\":3486:3522   */\n      iszero\n      tag_119\n      jumpi\n        /* \"#utility.yul\":3502:3520   */\n      tag_119\n      tag_89\n      jump\t// in\n        /* \"#utility.yul\":3533:3836   */\n    tag_67:\n        /* \"#utility.yul\":3664:3667   */\n      0x00\n        /* \"#utility.yul\":3702:3708   */\n      dup3\n        /* \"#utility.yul\":3696:3709   */\n      mload\n        /* \"#utility.yul\":3748:3754   */\n      dup1\n        /* \"#utility.yul\":3741:3745   */\n      0x20\n        /* \"#utility.yul\":3733:3739   */\n      dup6\n        /* \"#utility.yul\":3729:3746   */\n      add\n        /* \"#utility.yul\":3724:3727   */\n      dup5\n        /* \"#utility.yul\":3718:3755   */\n      mcopy\n        /* \"#utility.yul\":3810:3811   */\n      0x00\n        /* \"#utility.yul\":3774:3790   */\n      swap3\n      add\n        /* \"#utility.yul\":3799:3812   */\n      swap2\n      dup3\n      mstore\n      pop\n        /* \"#utility.yul\":3774:3790   */\n      swap2\n        /* \"#utility.yul\":3533:3836   */\n      swap1\n      pop\n      jump\t// out\n        /* \"#utility.yul\":4535:4663   */\n    tag_76:\n        /* \"#utility.yul\":4602:4611   */\n      dup2\n      dup2\n      sub\n        /* \"#utility.yul\":4623:4634   */\n      dup2\n      dup2\n      gt\n        /* \"#utility.yul\":4620:4657   */\n      iszero\n      tag_119\n      jumpi\n        /* \"#utility.yul\":4637:4655   */\n      tag_119\n      tag_89\n      jump\t// in\n        /* \"#utility.yul\":4668:5157   */\n    tag_78:\n        /* \"#utility.yul\":4845:4851   */\n      dup3\n        /* \"#utility.yul\":4834:4843   */\n      dup2\n        /* \"#utility.yul\":4827:4852   */\n      mstore\n        /* \"#utility.yul\":4888:4890   */\n      0x40\n        /* \"#utility.yul\":4883:4885   */\n      0x20\n        /* \"#utility.yul\":4872:4881   */\n      dup3\n        /* \"#utility.yul\":4868:4886   */\n      add\n        /* \"#utility.yul\":4861:4891   */\n      mstore\n        /* \"#utility.yul\":4808:4812   */\n      0x00\n        /* \"#utility.yul\":4920:4926   */\n      dup3\n        /* \"#utility.yul\":4914:4927   */\n      mload\n        /* \"#utility.yul\":4963:4969   */\n      dup1\n        /* \"#utility.yul\":4958:4960   */\n      0x40\n        /* \"#utility.yul\":4947:4956   */\n      dup5\n        /* \"#utility.yul\":4943:4961   */\n      add\n        /* \"#utility.yul\":4936:4970   */\n      mstore\n        /* \"#utility.yul\":5022:5028   */\n      dup1\n        /* \"#utility.yul\":5017:5019   */\n      0x20\n        /* \"#utility.yul\":5009:5015   */\n      dup6\n        /* \"#utility.yul\":5005:5020   */\n      add\n        /* \"#utility.yul\":5000:5002   */\n      0x60\n        /* \"#utility.yul\":4989:4998   */\n      dup6\n        /* \"#utility.yul\":4985:5003   */\n      add\n        /* \"#utility.yul\":4979:5029   */\n      mcopy\n        /* \"#utility.yul\":5078:5079   */\n      0x00\n        /* \"#utility.yul\":5073:5075   */\n      0x60\n        /* \"#utility.yul\":5064:5070   */\n      dup3\n        /* \"#utility.yul\":5053:5062   */\n      dup6\n        /* \"#utility.yul\":5049:5071   */\n      add\n        /* \"#utility.yul\":5045:5076   */\n      add\n        /* \"#utility.yul\":5038:5080   */\n      mstore\n        /* \"#utility.yul\":5148:5150   */\n      0x60\n        /* \"#utility.yul\":5141:5143   */\n      0x1f\n        /* \"#utility.yul\":5137:5144   */\n      not\n        /* \"#utility.yul\":5132:5134   */\n      0x1f\n        /* \"#utility.yul\":5124:5130   */\n      dup4\n        /* \"#utility.yul\":5120:5135   */\n      add\n        /* \"#utility.yul\":5116:5145   */\n      and\n        /* \"#utility.yul\":5105:5114   */\n      dup5\n        /* \"#utility.yul\":5101:5146   */\n      add\n        /* \"#utility.yul\":5097:5151   */\n      add\n        /* \"#utility.yul\":5089:5151   */\n      swap2\n      pop\n      pop\n        /* \"#utility.yul\":4668:5157   */\n      swap4\n      swap3\n      pop\n      pop\n      pop\n      jump\t// out\n\n    auxdata: 0xa2646970667358221220e52434e5324221e06539b2e6619a4102f306e0503669fe75ac615bf1ceb4bd7f64736f6c63430008190033\n}\n",
    "bytecode": {
      "linkReferences": {},
      "object": "6080604052348015600e575f80fd5b506040516107a13803806107a1833981016040819052602b916053565b600480546001600160a01b0319166001600160a01b03929092169190911790555f600355607e565b5f602082840312156062575f80fd5b81516001600160a01b03811681146077575f80fd5b9392505050565b6107168061008b5f395ff3fe608060405234801561000f575f80fd5b50600436106100b9575f3560e01c8063893d20e811610072578063a28e21b511610058578063a28e21b51461019d578063a2ce6964146101eb578063e994c15d146101fe575f80fd5b8063893d20e8146101655780638da5cb5b1461018a575f80fd5b80635c41fece116100a25780635c41fece1461010457806386b355831461012f57806386f5675014610142575f80fd5b806327e235e3146100bd5780633b0042c4146100ef575b5f80fd5b6100dc6100cb3660046104d8565b60016020525f908152604090205481565b6040519081526020015b60405180910390f35b6101026100fd3660046104fe565b610207565b005b6100dc6101123660046105bb565b805160208183018101805160028252928201919093012091525481565b61010261013d3660046105f5565b6102bc565b6101556101503660046104d8565b610405565b60405190151581526020016100e6565b6004546001600160a01b03165b6040516001600160a01b0390911681526020016100e6565b600454610172906001600160a01b031681565b6101ce6101ab3660046104d8565b5f6020819052908152604090208054600182015460029092015490919060ff1683565b6040805193845260208401929092521515908201526060016100e6565b6101026101f93660046105f5565b610459565b6100dc60035481565b5f610215826201518061064b565b61021f9042610668565b6040805160608101825285815260208082018481526001838501818152335f908152938490529483208451815591518282015593516002909101805460ff191691151591909117905560038054949550919361027c908490610668565b909155505060405184815233907f7e52caab8183f95bc6e16eabb68255bfc123ddd84684d064028d794966712f519060200160405180910390a250505050565b5f6002836040516102cd919061067b565b90815260200160405180910390205490505f81116103325760405162461bcd60e51b815260206004820152601060248201527f496e76616c69642063757272656e63790000000000000000000000000000000060448201526064015b60405180910390fd5b5f61033d828461064b565b335f908152600160205260409020549091508181101561039f5760405162461bcd60e51b815260206004820152601460248201527f496e73756666696369656e742062616c616e63650000000000000000000000006044820152606401610329565b335f90815260016020526040812080548492906103bd908490610691565b909155505060405133907f606ff1e9632beb4e08a56115fa1b41c0f8bd35344e8527ddd9967c1260b60194906103f690859089906106a4565b60405180910390a25050505050565b6001600160a01b0381165f908152602081815260408083208151606081018352815481526001820154938101939093526002015460ff161580159183018290526104525750806020015142105b9392505050565b6004546001600160a01b031633146104b35760405162461bcd60e51b815260206004820152600c60248201527f556e617574686f72697a656400000000000000000000000000000000000000006044820152606401610329565b806002836040516104c4919061067b565b908152604051908190036020019020555050565b5f602082840312156104e8575f80fd5b81356001600160a01b0381168114610452575f80fd5b5f806040838503121561050f575f80fd5b50508035926020909101359150565b634e487b7160e01b5f52604160045260245ffd5b5f82601f830112610541575f80fd5b813567ffffffffffffffff8082111561055c5761055c61051e565b604051601f8301601f19908116603f011681019082821181831017156105845761058461051e565b8160405283815286602085880101111561059c575f80fd5b836020870160208301375f602085830101528094505050505092915050565b5f602082840312156105cb575f80fd5b813567ffffffffffffffff8111156105e1575f80fd5b6105ed84828501610532565b949350505050565b5f8060408385031215610606575f80fd5b823567ffffffffffffffff81111561061c575f80fd5b61062885828601610532565b95602094909401359450505050565b634e487b7160e01b5f52601160045260245ffd5b808202811582820484141761066257610662610637565b92915050565b8082018082111561066257610662610637565b5f82518060208501845e5f920191825250919050565b8181038181111561066257610662610637565b828152604060208201525f82518060408401528060208501606085015e5f606082850101526060601f19601f830116840101915050939250505056fea2646970667358221220e52434e5324221e06539b2e6619a4102f306e0503669fe75ac615bf1ceb4bd7f64736f6c63430008190033",
      "opcodes": "PUSH1 0x80 PUSH1 0x40 MSTORE CALLVALUE DUP1 ISZERO PUSH1 0xE JUMPI PUSH0 DUP1 REVERT JUMPDEST POP PUSH1 0x40 MLOAD PUSH2 0x7A1 CODESIZE SUB DUP1 PUSH2 0x7A1 DUP4 CODECOPY DUP2 ADD PUSH1 0x40 DUP2 SWAP1 MSTORE PUSH1 0x2B SWAP2 PUSH1 0x53 JUMP JUMPDEST PUSH1 0x4 DUP1 SLOAD PUSH1 0x1 PUSH1 0x1 PUSH1 0xA0 SHL SUB NOT AND PUSH1 0x1 PUSH1 0x1 PUSH1 0xA0 SHL SUB SWAP3 SWAP1 SWAP3 AND SWAP2 SWAP1 SWAP2 OR SWAP1 SSTORE PUSH0 PUSH1 0x3 SSTORE PUSH1 0x7E JUMP JUMPDEST PUSH0 PUSH1 0x20 DUP3 DUP5 SUB SLT ISZERO PUSH1 0x62 JUMPI PUSH0 DUP1 REVERT JUMPDEST DUP2 MLOAD PUSH1 0x1 PUSH1 0x1 PUSH1 0xA0 SHL SUB DUP2 AND DUP2 EQ PUSH1 0x77 JUMPI PUSH0 DUP1 REVERT JUMPDEST SWAP4 SWAP3 POP POP POP JUMP JUMPDEST PUSH2 0x716 DUP1 PUSH2 0x8B PUSH0 CODECOPY PUSH0 RETURN INVALID PUSH1 0x80 PUSH1 0x40 MSTORE CALLVALUE DUP1 ISZERO PUSH2 0xF JUMPI PUSH0 DUP1 REVERT JUMPDEST POP PUSH1 0x4 CALLDATASIZE LT PUSH2 0xB9 JUMPI PUSH0 CALLDATALOAD PUSH1 0xE0 SHR DUP1 PUSH4 0x893D20E8 GT PUSH2 0x72 JUMPI DUP1 PUSH4 0xA28E21B5 GT PUSH2 0x58 JUMPI DUP1 PUSH4 0xA28E21B5 EQ PUSH2 0x19D JUMPI DUP1 PUSH4 0xA2CE6964 EQ PUSH2 0x1EB JUMPI DUP1 PUSH4 0xE994C15D EQ PUSH2 0x1FE JUMPI PUSH0 DUP1 REVERT JUMPDEST DUP1 PUSH4 0x893D20E8 EQ PUSH2 0x165 JUMPI DUP1 PUSH4 0x8DA5CB5B EQ PUSH2 0x18A JUMPI PUSH0 DUP1 REVERT JUMPDEST DUP1 PUSH4 0x5C41FECE GT PUSH2 0xA2 JUMPI DUP1 PUSH4 0x5C41FECE EQ PUSH2 0x104 JUMPI DUP1 PUSH4 0x86B35583 EQ PUSH2 0x12F JUMPI DUP1 PUSH4 0x86F56750 EQ PUSH2 0x142 JUMPI PUSH0 DUP1 REVERT JUMPDEST DUP1 PUSH4 0x27E235E3 EQ PUSH2 0xBD JUMPI DUP1 PUSH4 0x3B0042C4 EQ PUSH2 0xEF JUMPI JUMPDEST PUSH0 DUP1 REVERT JUMPDEST PUSH2 0xDC PUSH2 0xCB CALLDATASIZE PUSH1 0x4 PUSH2 0x4D8 JUMP JUMPDEST PUSH1 0x1 PUSH1 0x20 MSTORE PUSH0 SWAP1 DUP2 MSTORE PUSH1 0x40 SWAP1 KECCAK256 SLOAD DUP2 JUMP JUMPDEST PUSH1 0x40 MLOAD SWAP1 DUP2 MSTORE PUSH1 0x20 ADD JUMPDEST PUSH1 0x40 MLOAD DUP1 SWAP2 SUB SWAP1 RETURN JUMPDEST PUSH2 0x102 PUSH2 0xFD CALLDATASIZE PUSH1 0x4 PUSH2 0x4FE JUMP JUMPDEST PUSH2 0x207 JUMP JUMPDEST STOP JUMPDEST PUSH2 0xDC PUSH2 0x112 CALLDATASIZE PUSH1 0x4 PUSH2 0x5BB JUMP JUMPDEST DUP1 MLOAD PUSH1 0x20 DUP2 DUP4 ADD DUP2 ADD DUP1 MLOAD PUSH1 0x2 DUP3 MSTORE SWAP3 DUP3 ADD SWAP2 SWAP1 SWAP4 ADD KECCAK256 SWAP2 MSTORE SLOAD DUP2 JUMP JUMPDEST PUSH2 0x102 PUSH2 0x13D CALLDATASIZE PUSH1 0x4 PUSH2 0x5F5 JUMP JUMPDEST PUSH2 0x2BC JUMP JUMPDEST PUSH2 0x155 PUSH2 0x150 CALLDATASIZE PUSH1 0x4 PUSH2 0x4D8 JUMP JUMPDEST PUSH2 0x405 JUMP JUMPDEST PUSH1 0x40 MLOAD SWAP1 ISZERO ISZERO DUP2 MSTORE PUSH1 0x20 ADD PUSH2 0xE6 JUMP JUMPDEST PUSH1 0x4 SLOAD PUSH1 0x1 PUSH1 0x1 PUSH1 0xA0 SHL SUB AND JUMPDEST PUSH1 0x40 MLOAD PUSH1 0x1 PUSH1 0x1 PUSH1 0xA0 SHL SUB SWAP1 SWAP2 AND DUP2 MSTORE PUSH1 0x20 ADD PUSH2 0xE6 JUMP JUMPDEST PUSH1 0x4 SLOAD PUSH2 0x172 SWAP1 PUSH1 0x1 PUSH1 0x1 PUSH1 0xA0 SHL SUB AND DUP2 JUMP JUMPDEST PUSH2 0x1CE PUSH2 0x1AB CALLDATASIZE PUSH1 0x4 PUSH2 0x4D8 JUMP JUMPDEST PUSH0 PUSH1 0x20 DUP2 SWAP1 MSTORE SWAP1 DUP2 MSTORE PUSH1 0x40 SWAP1 KECCAK256 DUP1 SLOAD PUSH1 0x1 DUP3 ADD SLOAD PUSH1 0x2 SWAP1 SWAP3 ADD SLOAD SWAP1 SWAP2 SWAP1 PUSH1 0xFF AND DUP4 JUMP JUMPDEST PUSH1 0x40 DUP1 MLOAD SWAP4 DUP5 MSTORE PUSH1 0x20 DUP5 ADD SWAP3 SWAP1 SWAP3 MSTORE ISZERO ISZERO SWAP1 DUP3 ADD MSTORE PUSH1 0x60 ADD PUSH2 0xE6 JUMP JUMPDEST PUSH2 0x102 PUSH2 0x1F9 CALLDATASIZE PUSH1 0x4 PUSH2 0x5F5 JUMP JUMPDEST PUSH2 0x459 JUMP JUMPDEST PUSH2 0xDC PUSH1 0x3 SLOAD DUP2 JUMP JUMPDEST PUSH0 PUSH2 0x215 DUP3 PUSH3 0x15180 PUSH2 0x64B JUMP JUMPDEST PUSH2 0x21F SWAP1 TIMESTAMP PUSH2 0x668 JUMP JUMPDEST PUSH1 0x40 DUP1 MLOAD PUSH1 0x60 DUP2 ADD DUP3 MSTORE DUP6 DUP2 MSTORE PUSH1 0x20 DUP1 DUP3 ADD DUP5 DUP2 MSTORE PUSH1 0x1 DUP4 DUP6 ADD DUP2 DUP2 MSTORE CALLER PUSH0 SWAP1 DUP2 MSTORE SWAP4 DUP5 SWAP1 MSTORE SWAP5 DUP4 KECCAK256 DUP5 MLOAD DUP2 SSTORE SWAP2 MLOAD DUP3 DUP3 ADD SSTORE SWAP4 MLOAD PUSH1 0x2 SWAP1 SWAP2 ADD DUP1 SLOAD PUSH1 0xFF NOT AND SWAP2 ISZERO ISZERO SWAP2 SWAP1 SWAP2 OR SWAP1 SSTORE PUSH1 0x3 DUP1 SLOAD SWAP5 SWAP6 POP SWAP2 SWAP4 PUSH2 0x27C SWAP1 DUP5 SWAP1 PUSH2 0x668 JUMP JUMPDEST SWAP1 SWAP2 SSTORE POP POP PUSH1 0x40 MLOAD DUP5 DUP2 MSTORE CALLER SWAP1 PUSH32 0x7E52CAAB8183F95BC6E16EABB68255BFC123DDD84684D064028D794966712F51 SWAP1 PUSH1 0x20 ADD PUSH1 0x40 MLOAD DUP1 SWAP2 SUB SWAP1 LOG2 POP POP POP POP JUMP JUMPDEST PUSH0 PUSH1 0x2 DUP4 PUSH1 0x40 MLOAD PUSH2 0x2CD SWAP2 SWAP1 PUSH2 0x67B JUMP JUMPDEST SWAP1 DUP2 MSTORE PUSH1 0x20 ADD PUSH1 0x40 MLOAD DUP1 SWAP2 SUB SWAP1 KECCAK256 SLOAD SWAP1 POP PUSH0 DUP2 GT PUSH2 0x332 JUMPI PUSH1 0x40 MLOAD PUSH3 0x461BCD PUSH1 0xE5 SHL DUP2 MSTORE PUSH1 0x20 PUSH1 0x4 DUP3 ADD MSTORE PUSH1 0x10 PUSH1 0x24 DUP3 ADD MSTORE PUSH32 0x496E76616C69642063757272656E637900000000000000000000000000000000 PUSH1 0x44 DUP3 ADD MSTORE PUSH1 0x64 ADD JUMPDEST PUSH1 0x40 MLOAD DUP1 SWAP2 SUB SWAP1 REVERT JUMPDEST PUSH0 PUSH2 0x33D DUP3 DUP5 PUSH2 0x64B JUMP JUMPDEST CALLER PUSH0 SWAP1 DUP2 MSTORE PUSH1 0x1 PUSH1 0x20 MSTORE PUSH1 0x40 SWAP1 KECCAK256 SLOAD SWAP1 SWAP2 POP DUP2 DUP2 LT ISZERO PUSH2 0x39F JUMPI PUSH1 0x40 MLOAD PUSH3 0x461BCD PUSH1 0xE5 SHL DUP2 MSTORE PUSH1 0x20 PUSH1 0x4 DUP3 ADD MSTORE PUSH1 0x14 PUSH1 0x24 DUP3 ADD MSTORE PUSH32 0x496E73756666696369656E742062616C616E6365000000000000000000000000 PUSH1 0x44 DUP3 ADD MSTORE PUSH1 0x64 ADD PUSH2 0x329 JUMP JUMPDEST CALLER PUSH0 SWAP1 DUP2 MSTORE PUSH1 0x1 PUSH1 0x20 MSTORE PUSH1 0x40 DUP2 KECCAK256 DUP1 SLOAD DUP5 SWAP3 SWAP1 PUSH2 0x3BD SWAP1 DUP5 SWAP1 PUSH2 0x691 JUMP JUMPDEST SWAP1 SWAP2 SSTORE POP POP PUSH1 0x40 MLOAD CALLER SWAP1 PUSH32 0x606FF1E9632BEB4E08A56115FA1B41C0F8BD35344E8527DDD9967C1260B60194 SWAP1 PUSH2 0x3F6 SWAP1 DUP6 SWAP1 DUP10 SWAP1 PUSH2 0x6A4 JUMP JUMPDEST PUSH1 0x40 MLOAD DUP1 SWAP2 SUB SWAP1 LOG2 POP POP POP POP POP JUMP JUMPDEST PUSH1 0x1 PUSH1 0x1 PUSH1 0xA0 SHL SUB DUP2 AND PUSH0 SWAP1 DUP2 MSTORE PUSH1 0x20 DUP2 DUP2 MSTORE PUSH1 0x40 DUP1 DUP4 KECCAK256 DUP2 MLOAD PUSH1 0x60 DUP2 ADD DUP4 MSTORE DUP2 SLOAD DUP2 MSTORE PUSH1 0x1 DUP3 ADD SLOAD SWAP4 DUP2 ADD SWAP4 SWAP1 SWAP4 MSTORE PUSH1 0x2 ADD SLOAD PUSH1 0xFF AND ISZERO DUP1 ISZERO SWAP2 DUP4 ADD DUP3 SWAP1 MSTORE PUSH2 0x452 JUMPI POP DUP1 PUSH1 0x20 ADD MLOAD TIMESTAMP LT JUMPDEST SWAP4 SWAP3 POP POP POP JUMP JUMPDEST PUSH1 0x4 SLOAD PUSH1 0x1 PUSH1 0x1 PUSH1 0xA0 SHL SUB AND CALLER EQ PUSH2 0x4B3 JUMPI PUSH1 0x40 MLOAD PUSH3 0x461BCD PUSH1 0xE5 SHL DUP2 MSTORE PUSH1 0x20 PUSH1 0x4 DUP3 ADD MSTORE PUSH1 0xC PUSH1 0x24 DUP3 ADD MSTORE PUSH32 0x556E617574686F72697A65640000000000000000000000000000000000000000 PUSH1 0x44 DUP3 ADD MSTORE PUSH1 0x64 ADD PUSH2 0x329 JUMP JUMPDEST DUP1 PUSH1 0x2 DUP4 PUSH1 0x40 MLOAD PUSH2 0x4C4 SWAP2 SWAP1 PUSH2 0x67B JUMP JUMPDEST SWAP1 DUP2 MSTORE PUSH1 0x40 MLOAD SWAP1 DUP2 SWAP1 SUB PUSH1 0x20 ADD SWAP1 KECCAK256 SSTORE POP POP JUMP JUMPDEST PUSH0 PUSH1 0x20 DUP3 DUP5 SUB SLT ISZERO PUSH2 0x4E8 JUMPI PUSH0 DUP1 REVERT JUMPDEST DUP2 CALLDATALOAD PUSH1 0x1 PUSH1 0x1 PUSH1 0xA0 SHL SUB DUP2 AND DUP2 EQ PUSH2 0x452 JUMPI PUSH0 DUP1 REVERT JUMPDEST PUSH0 DUP1 PUSH1 0x40 DUP4 DUP6 SUB SLT ISZERO PUSH2 0x50F JUMPI PUSH0 DUP1 REVERT JUMPDEST POP POP DUP1 CALLDATALOAD SWAP3 PUSH1 0x20 SWAP1 SWAP2 ADD CALLDATALOAD SWAP2 POP JUMP JUMPDEST PUSH4 0x4E487B71 PUSH1 0xE0 SHL PUSH0 MSTORE PUSH1 0x41 PUSH1 0x4 MSTORE PUSH1 0x24 PUSH0 REVERT JUMPDEST PUSH0 DUP3 PUSH1 0x1F DUP4 ADD SLT PUSH2 0x541 JUMPI PUSH0 DUP1 REVERT JUMPDEST DUP2 CALLDATALOAD PUSH8 0xFFFFFFFFFFFFFFFF DUP1 DUP3 GT ISZERO PUSH2 0x55C JUMPI PUSH2 0x55C PUSH2 0x51E JUMP JUMPDEST PUSH1 0x40 MLOAD PUSH1 0x1F DUP4 ADD PUSH1 0x1F NOT SWAP1 DUP2 AND PUSH1 0x3F ADD AND DUP2 ADD SWAP1 DUP3 DUP3 GT DUP2 DUP4 LT OR ISZERO PUSH2 0x584 JUMPI PUSH2 0x584 PUSH2 0x51E JUMP JUMPDEST DUP2 PUSH1 0x40 MSTORE DUP4 DUP2 MSTORE DUP7 PUSH1 0x20 DUP6 DUP9 ADD ADD GT ISZERO PUSH2 0x59C JUMPI PUSH0 DUP1 REVERT JUMPDEST DUP4 PUSH1 0x20 DUP8 ADD PUSH1 0x20 DUP4 ADD CALLDATACOPY PUSH0 PUSH1 0x20 DUP6 DUP4 ADD ADD MSTORE DUP1 SWAP5 POP POP POP POP POP SWAP3 SWAP2 POP POP JUMP JUMPDEST PUSH0 PUSH1 0x20 DUP3 DUP5 SUB SLT ISZERO PUSH2 0x5CB JUMPI PUSH0 DUP1 REVERT JUMPDEST DUP2 CALLDATALOAD PUSH8 0xFFFFFFFFFFFFFFFF DUP2 GT ISZERO PUSH2 0x5E1 JUMPI PUSH0 DUP1 REVERT JUMPDEST PUSH2 0x5ED DUP5 DUP3 DUP6 ADD PUSH2 0x532 JUMP JUMPDEST SWAP5 SWAP4 POP POP POP POP JUMP JUMPDEST PUSH0 DUP1 PUSH1 0x40 DUP4 DUP6 SUB SLT ISZERO PUSH2 0x606 JUMPI PUSH0 DUP1 REVERT JUMPDEST DUP3 CALLDATALOAD PUSH8 0xFFFFFFFFFFFFFFFF DUP2 GT ISZERO PUSH2 0x61C JUMPI PUSH0 DUP1 REVERT JUMPDEST PUSH2 0x628 DUP6 DUP3 DUP7 ADD PUSH2 0x532 JUMP JUMPDEST SWAP6 PUSH1 0x20 SWAP5 SWAP1 SWAP5 ADD CALLDATALOAD SWAP5 POP POP POP POP JUMP JUMPDEST PUSH4 0x4E487B71 PUSH1 0xE0 SHL PUSH0 MSTORE PUSH1 0x11 PUSH1 0x4 MSTORE PUSH1 0x24 PUSH0 REVERT JUMPDEST DUP1 DUP3 MUL DUP2 ISZERO DUP3 DUP3 DIV DUP5 EQ OR PUSH2 0x662 JUMPI PUSH2 0x662 PUSH2 0x637 JUMP JUMPDEST SWAP3 SWAP2 POP POP JUMP JUMPDEST DUP1 DUP3 ADD DUP1 DUP3 GT ISZERO PUSH2 0x662 JUMPI PUSH2 0x662 PUSH2 0x637 JUMP JUMPDEST PUSH0 DUP3 MLOAD DUP1 PUSH1 0x20 DUP6 ADD DUP5 MCOPY PUSH0 SWAP3 ADD SWAP2 DUP3 MSTORE POP SWAP2 SWAP1 POP JUMP JUMPDEST DUP2 DUP2 SUB DUP2 DUP2 GT ISZERO PUSH2 0x662 JUMPI PUSH2 0x662 PUSH2 0x637 JUMP JUMPDEST DUP3 DUP2 MSTORE PUSH1 0x40 PUSH1 0x20 DUP3 ADD MSTORE PUSH0 DUP3 MLOAD DUP1 PUSH1 0x40 DUP5 ADD MSTORE DUP1 PUSH1 0x20 DUP6 ADD PUSH1 0x60 DUP6 ADD MCOPY PUSH0 PUSH1 0x60 DUP3 DUP6 ADD ADD MSTORE PUSH1 0x60 PUSH1 0x1F NOT PUSH1 0x1F DUP4 ADD AND DUP5 ADD ADD SWAP2 POP POP SWAP4 SWAP3 POP POP POP JUMP INVALID LOG2 PUSH5 0x6970667358 0x22 SLT KECCAK256 0xE5 0x24 CALLVALUE 0xE5 ORIGIN TIMESTAMP 0x21 0xE0 PUSH6 0x39B2E6619A41 MUL RETURN MOD 0xE0 POP CALLDATASIZE PUSH10 0xFE75AC615BF1CEB4BD7F PUSH5 0x736F6C6343 STOP ADDMOD NOT STOP CALLER "
    },
    "gasEstimates": {
      "creation": {
        "codeDepositCost": "362800",
        "executionCost": "infinite",
        "totalCost": "infinite"
      },
      "external": {
        "balances(address)": "2494",
        "cardOwners(address)": "6793",
        "conversionRates(string)": "infinite",
        "getOwner()": "2342",
        "isCardActive(address)": "infinite",
        "issueCard(uint256,uint256)": "infinite",
        "owner()": "2381",
        "processPayment(string,uint256)": "infinite",
        "setConversionRate(string,uint256)": "infinite",
        "totalCards()": "2349"
      }
    },
    "methodIdentifiers": {
      "balances(address)": "27e235e3",
      "cardOwners(address)": "a28e21b5",
      "conversionRates(string)": "5c41fece",
      "getOwner()": "893d20e8",
      "isCardActive(address)": "86f56750",
      "issueCard(uint256,uint256)": "3b0042c4",
      "owner()": "8da5cb5b",
      "processPayment(string,uint256)": "86b35583",
      "setConversionRate(string,uint256)": "a2ce6964",
      "totalCards()": "e994c15d"
    }
  },
  "storageLayout": {
    "storage": [
      {
        "astId": 13,
        "contract": "Contract.sol:Web3CreditCard",
        "label": "cardOwners",
        "offset": 0,
        "slot": "0",
        "type": "t_mapping(t_address,t_struct(CardInfo)8_storage)"
      },
      {
        "astId": 17,
        "contract": "Contract.sol:Web3CreditCard",
        "label": "balances",
        "offset": 0,
        "slot": "1",
        "type": "t_mapping(t_address,t_uint256)"
      },
      {
        "astId": 21,
        "contract": "Contract.sol:Web3CreditCard",
        "label": "conversionRates",
        "offset": 0,
        "slot": "2",
        "type": "t_mapping(t_string_memory_ptr,t_uint256)"
      },
      {
        "astId": 23,
        "contract": "Contract.sol:Web3CreditCard",
        "label": "totalCards",
        "offset": 0,
        "slot": "3",
        "type": "t_uint256"
      },
      {
        "astId": 25,
        "contract": "Contract.sol:Web3CreditCard",
        "label": "owner",
        "offset": 0,
        "slot": "4",
        "type": "t_address"
      }
    ],
    "types": {
      "t_address": {
        "encoding": "inplace",
        "label": "address",
        "numberOfBytes": "20"
      },
      "t_bool": {
        "encoding": "inplace",
        "label": "bool",
        "numberOfBytes": "1"
      },
      "t_mapping(t_address,t_struct(CardInfo)8_storage)": {
        "encoding": "mapping",
        "key": "t_address",
        "label": "mapping(address => struct Web3CreditCard.CardInfo)",
        "numberOfBytes": "32",
        "value": "t_struct(CardInfo)8_storage"
      },
      "t_mapping(t_address,t_uint256)": {
        "encoding": "mapping",
        "key": "t_address",
        "label": "mapping(address => uint256)",
        "numberOfBytes": "32",
        "value": "t_uint256"
      },
      "t_mapping(t_string_memory_ptr,t_uint256)": {
        "encoding": "mapping",
        "key": "t_string_memory_ptr",
        "label": "mapping(string => uint256)",
        "numberOfBytes": "32",
        "value": "t_uint256"
      },
      "t_string_memory_ptr": {
        "encoding": "bytes",
        "label": "string",
        "numberOfBytes": "32"
      },
      "t_struct(CardInfo)8_storage": {
        "encoding": "inplace",
        "label": "struct Web3CreditCard.CardInfo",
        "members": [
          {
            "astId": 3,
            "contract": "Contract.sol:Web3CreditCard",
            "label": "cardNumber",
            "offset": 0,
            "slot": "0",
            "type": "t_uint256"
          },
          {
            "astId": 5,
            "contract": "Contract.sol:Web3CreditCard",
            "label": "expiryTimestamp",
            "offset": 0,
            "slot": "1",
            "type": "t_uint256"
          },
          {
            "astId": 7,
            "contract": "Contract.sol:Web3CreditCard",
            "label": "active",
            "offset": 0,
            "slot": "2",
            "type": "t_bool"
          }
        ],
        "numberOfBytes": "96"
      },
      "t_uint256": {
        "encoding": "inplace",
        "label": "uint256",
        "numberOfBytes": "32"
      }
    }
  },
  "userdoc": {
    "kind": "user",
    "methods": {},
    "version": 1
  }
}